{
  "_format": "hh-sol-artifact-1",
  "contractName": "ERC20Token",
  "sourceName": "contracts/test/ERC20Token.sol",
  "abi": [
    {
      "inputs": [],
      "stateMutability": "nonpayable",
      "type": "constructor"
    },
    {
      "anonymous": false,
      "inputs": [
        {
          "indexed": true,
          "internalType": "address",
          "name": "owner",
          "type": "address"
        },
        {
          "indexed": true,
          "internalType": "address",
          "name": "spender",
          "type": "address"
        },
        {
          "indexed": false,
          "internalType": "uint256",
          "name": "amount",
          "type": "uint256"
        }
      ],
      "name": "Approval",
      "type": "event"
    },
    {
      "anonymous": false,
      "inputs": [
        {
          "indexed": true,
          "internalType": "address",
          "name": "from",
          "type": "address"
        },
        {
          "indexed": true,
          "internalType": "address",
          "name": "to",
          "type": "address"
        },
        {
          "indexed": false,
          "internalType": "uint256",
          "name": "amount",
          "type": "uint256"
        }
      ],
      "name": "Transfer",
      "type": "event"
    },
    {
      "inputs": [],
      "name": "DOMAIN_SEPARATOR",
      "outputs": [
        {
          "internalType": "bytes32",
          "name": "",
          "type": "bytes32"
        }
      ],
      "stateMutability": "view",
      "type": "function"
    },
    {
      "inputs": [
        {
          "internalType": "address",
          "name": "",
          "type": "address"
        },
        {
          "internalType": "address",
          "name": "",
          "type": "address"
        }
      ],
      "name": "allowance",
      "outputs": [
        {
          "internalType": "uint256",
          "name": "",
          "type": "uint256"
        }
      ],
      "stateMutability": "view",
      "type": "function"
    },
    {
      "inputs": [
        {
          "internalType": "address",
          "name": "spender",
          "type": "address"
        },
        {
          "internalType": "uint256",
          "name": "amount",
          "type": "uint256"
        }
      ],
      "name": "approve",
      "outputs": [
        {
          "internalType": "bool",
          "name": "",
          "type": "bool"
        }
      ],
      "stateMutability": "nonpayable",
      "type": "function"
    },
    {
      "inputs": [
        {
          "internalType": "address",
          "name": "",
          "type": "address"
        }
      ],
      "name": "balanceOf",
      "outputs": [
        {
          "internalType": "uint256",
          "name": "",
          "type": "uint256"
        }
      ],
      "stateMutability": "view",
      "type": "function"
    },
    {
      "inputs": [],
      "name": "decimals",
      "outputs": [
        {
          "internalType": "uint8",
          "name": "",
          "type": "uint8"
        }
      ],
      "stateMutability": "view",
      "type": "function"
    },
    {
      "inputs": [
        {
          "internalType": "address",
          "name": "to",
          "type": "address"
        },
        {
          "internalType": "uint256",
          "name": "amount",
          "type": "uint256"
        }
      ],
      "name": "mint",
      "outputs": [],
      "stateMutability": "nonpayable",
      "type": "function"
    },
    {
      "inputs": [],
      "name": "name",
      "outputs": [
        {
          "internalType": "string",
          "name": "",
          "type": "string"
        }
      ],
      "stateMutability": "view",
      "type": "function"
    },
    {
      "inputs": [
        {
          "internalType": "address",
          "name": "",
          "type": "address"
        }
      ],
      "name": "nonces",
      "outputs": [
        {
          "internalType": "uint256",
          "name": "",
          "type": "uint256"
        }
      ],
      "stateMutability": "view",
      "type": "function"
    },
    {
      "inputs": [
        {
          "internalType": "address",
          "name": "owner",
          "type": "address"
        },
        {
          "internalType": "address",
          "name": "spender",
          "type": "address"
        },
        {
          "internalType": "uint256",
          "name": "value",
          "type": "uint256"
        },
        {
          "internalType": "uint256",
          "name": "deadline",
          "type": "uint256"
        },
        {
          "internalType": "uint8",
          "name": "v",
          "type": "uint8"
        },
        {
          "internalType": "bytes32",
          "name": "r",
          "type": "bytes32"
        },
        {
          "internalType": "bytes32",
          "name": "s",
          "type": "bytes32"
        }
      ],
      "name": "permit",
      "outputs": [],
      "stateMutability": "nonpayable",
      "type": "function"
    },
    {
      "inputs": [],
      "name": "symbol",
      "outputs": [
        {
          "internalType": "string",
          "name": "",
          "type": "string"
        }
      ],
      "stateMutability": "view",
      "type": "function"
    },
    {
      "inputs": [],
      "name": "totalSupply",
      "outputs": [
        {
          "internalType": "uint256",
          "name": "",
          "type": "uint256"
        }
      ],
      "stateMutability": "view",
      "type": "function"
    },
    {
      "inputs": [
        {
          "internalType": "address",
          "name": "to",
          "type": "address"
        },
        {
          "internalType": "uint256",
          "name": "amount",
          "type": "uint256"
        }
      ],
      "name": "transfer",
      "outputs": [
        {
          "internalType": "bool",
          "name": "",
          "type": "bool"
        }
      ],
      "stateMutability": "nonpayable",
      "type": "function"
    },
    {
      "inputs": [
        {
          "internalType": "address",
          "name": "from",
          "type": "address"
        },
        {
          "internalType": "address",
          "name": "to",
          "type": "address"
        },
        {
          "internalType": "uint256",
          "name": "amount",
          "type": "uint256"
        }
      ],
      "name": "transferFrom",
      "outputs": [
        {
          "internalType": "bool",
          "name": "",
          "type": "bool"
        }
      ],
      "stateMutability": "nonpayable",
      "type": "function"
    }
  ],
  "bytecode": "0x60e060405234801561000f575f80fd5b506040518060400160405280601381526020017f45524332302067656e6572696320746f6b656e000000000000000000000000008152506040518060400160405280600a81526020016922a92199182a37b5b2b760b11b8152506012825f908161007991906101d6565b50600161008683826101d6565b5060ff81166080524660a05261009a6100a6565b60c05250610307915050565b5f7f8b73c3c69bb8fe3d512ecc4cf759cc79239f7b179b0ffacaa9a75d522b39400f5f6040516100d69190610295565b6040805191829003822060208301939093528101919091527fc89efdaa54c0f20c7adf612882df0950f5a951637e0307cdcb4c672f298b8bc660608201524660808201523060a082015260c00160405160208183030381529060405280519060200120905090565b634e487b7160e01b5f52604160045260245ffd5b600181811c9082168061016657607f821691505b60208210810361018457634e487b7160e01b5f52602260045260245ffd5b50919050565b601f8211156101d157805f5260205f20601f840160051c810160208510156101af5750805b601f840160051c820191505b818110156101ce575f81556001016101bb565b50505b505050565b81516001600160401b038111156101ef576101ef61013e565b610203816101fd8454610152565b8461018a565b602080601f831160018114610236575f841561021f5750858301515b5f19600386901b1c1916600185901b17855561028d565b5f85815260208120601f198616915b8281101561026457888601518255948401946001909101908401610245565b508582101561028157878501515f19600388901b60f8161c191681555b505060018460011b0185555b505050505050565b5f8083546102a281610152565b600182811680156102ba57600181146102cf576102fb565b60ff19841687528215158302870194506102fb565b875f526020805f205f5b858110156102f25781548a8201529084019082016102d9565b50505082870194505b50929695505050505050565b60805160a05160c051610b0c6103315f395f61045101525f61041c01525f61014e0152610b0c5ff3fe608060405234801561000f575f80fd5b50600436106100da575f3560e01c806340c10f191161008857806395d89b411161006357806395d89b41146101dd578063a9059cbb146101e5578063d505accf146101f8578063dd62ed3e1461020b575f80fd5b806340c10f191461018a57806370a082311461019f5780637ecebe00146101be575f80fd5b806323b872dd116100b857806323b872dd14610136578063313ce567146101495780633644e51514610182575f80fd5b806306fdde03146100de578063095ea7b3146100fc57806318160ddd1461011f575b5f80fd5b6100e6610235565b6040516100f39190610857565b60405180910390f35b61010f61010a3660046108a7565b6102c0565b60405190151581526020016100f3565b61012860025481565b6040519081526020016100f3565b61010f6101443660046108cf565b61032c565b6101707f000000000000000000000000000000000000000000000000000000000000000081565b60405160ff90911681526020016100f3565b610128610419565b61019d6101983660046108a7565b610473565b005b6101286101ad366004610908565b60036020525f908152604090205481565b6101286101cc366004610908565b60056020525f908152604090205481565b6100e6610481565b61010f6101f33660046108a7565b61048e565b61019d610206366004610928565b610504565b610128610219366004610995565b600460209081525f928352604080842090915290825290205481565b5f8054610241906109c6565b80601f016020809104026020016040519081016040528092919081815260200182805461026d906109c6565b80156102b85780601f1061028f576101008083540402835291602001916102b8565b820191905f5260205f20905b81548152906001019060200180831161029b57829003601f168201915b505050505081565b335f8181526004602090815260408083206001600160a01b038716808552925280832085905551919290917f8c5be1e5ebec7d5bd14f71427d1e84f3dd0314c0f7b2291e5b200ac8c7c3b9259061031a9086815260200190565b60405180910390a35060015b92915050565b6001600160a01b0383165f9081526004602090815260408083203384529091528120545f198114610385576103618382610a12565b6001600160a01b0386165f9081526004602090815260408083203384529091529020555b6001600160a01b0385165f90815260036020526040812080548592906103ac908490610a12565b90915550506001600160a01b038085165f81815260036020526040908190208054870190555190918716907fddf252ad1be2c89b69c2b068fc378daa952ba7f163c4a11628f55a4df523b3ef906104069087815260200190565b60405180910390a3506001949350505050565b5f7f0000000000000000000000000000000000000000000000000000000000000000461461044e57610449610756565b905090565b507f000000000000000000000000000000000000000000000000000000000000000090565b61047d82826107ee565b5050565b60018054610241906109c6565b335f908152600360205260408120805483919083906104ae908490610a12565b90915550506001600160a01b0383165f81815260036020526040908190208054850190555133907fddf252ad1be2c89b69c2b068fc378daa952ba7f163c4a11628f55a4df523b3ef9061031a9086815260200190565b428410156105595760405162461bcd60e51b815260206004820152601760248201527f5045524d49545f444541444c494e455f4558504952454400000000000000000060448201526064015b60405180910390fd5b5f6001610564610419565b6001600160a01b038a81165f8181526005602090815260409182902080546001810190915582517f6e71edae12b1b97f4d1f60370fef10105fa2faae0126114a169c64845d6126c98184015280840194909452938d166060840152608083018c905260a083019390935260c08083018b90528151808403909101815260e08301909152805192019190912061190160f01b6101008301526101028201929092526101228101919091526101420160408051601f1981840301815282825280516020918201205f84529083018083525260ff871690820152606081018590526080810184905260a0016020604051602081039080840390855afa15801561066c573d5f803e3d5ffd5b5050604051601f1901519150506001600160a01b038116158015906106a25750876001600160a01b0316816001600160a01b0316145b6106ee5760405162461bcd60e51b815260206004820152600e60248201527f494e56414c49445f5349474e45520000000000000000000000000000000000006044820152606401610550565b6001600160a01b039081165f9081526004602090815260408083208a8516808552908352928190208990555188815291928a16917f8c5be1e5ebec7d5bd14f71427d1e84f3dd0314c0f7b2291e5b200ac8c7c3b925910160405180910390a350505050505050565b5f7f8b73c3c69bb8fe3d512ecc4cf759cc79239f7b179b0ffacaa9a75d522b39400f5f6040516107869190610a25565b6040805191829003822060208301939093528101919091527fc89efdaa54c0f20c7adf612882df0950f5a951637e0307cdcb4c672f298b8bc660608201524660808201523060a082015260c00160405160208183030381529060405280519060200120905090565b8060025f8282546107ff9190610ac3565b90915550506001600160a01b0382165f818152600360209081526040808320805486019055518481527fddf252ad1be2c89b69c2b068fc378daa952ba7f163c4a11628f55a4df523b3ef910160405180910390a35050565b602081525f82518060208401528060208501604085015e5f604082850101526040601f19601f83011684010191505092915050565b80356001600160a01b03811681146108a2575f80fd5b919050565b5f80604083850312156108b8575f80fd5b6108c18361088c565b946020939093013593505050565b5f805f606084860312156108e1575f80fd5b6108ea8461088c565b92506108f86020850161088c565b9150604084013590509250925092565b5f60208284031215610918575f80fd5b6109218261088c565b9392505050565b5f805f805f805f60e0888a03121561093e575f80fd5b6109478861088c565b96506109556020890161088c565b95506040880135945060608801359350608088013560ff81168114610978575f80fd5b9699959850939692959460a0840135945060c09093013592915050565b5f80604083850312156109a6575f80fd5b6109af8361088c565b91506109bd6020840161088c565b90509250929050565b600181811c908216806109da57607f821691505b6020821081036109f857634e487b7160e01b5f52602260045260245ffd5b50919050565b634e487b7160e01b5f52601160045260245ffd5b81810381811115610326576103266109fe565b5f8083545f60018260011c91506001831680610a4257607f831692505b60208084108203610a6157634e487b7160e01b5f52602260045260245ffd5b818015610a755760018114610a8a57610ab5565b60ff1986168952841515850289019650610ab5565b5f8a8152602090205f5b86811015610aad5781548b820152908501908301610a94565b505084890196505b509498975050505050505050565b80820180821115610326576103266109fe56fea26469706673582212201966ed9da65f456e92cce672bf75dda8d30f2523046b93f053f06166a624a59464736f6c63430008190033",
  "linkReferences": {},
  "deployedLinkReferences": {}
}